{
  "_format": "hh-sol-artifact-1",
  "contractName": "MVDbxToken",
  "sourceName": "contracts/MVDBx.sol",
  "abi": [
    {
      "inputs": [
        {
          "internalType": "uint256",
          "name": "assetCap_",
          "type": "uint256"
        },
        {
          "internalType": "address",
          "name": "dataFeed_",
          "type": "address"
        }
      ],
      "stateMutability": "nonpayable",
      "type": "constructor"
    },
    {
      "anonymous": false,
      "inputs": [
        {
          "indexed": true,
          "internalType": "address",
          "name": "owner",
          "type": "address"
        },
        {
          "indexed": true,
          "internalType": "address",
          "name": "spender",
          "type": "address"
        },
        {
          "indexed": false,
          "internalType": "uint256",
          "name": "value",
          "type": "uint256"
        }
      ],
      "name": "Approval",
      "type": "event"
    },
    {
      "anonymous": false,
      "inputs": [
        {
          "indexed": true,
          "internalType": "address",
          "name": "src",
          "type": "address"
        },
        {
          "indexed": false,
          "internalType": "uint256",
          "name": "amount",
          "type": "uint256"
        },
        {
          "indexed": false,
          "internalType": "uint256",
          "name": "chainId",
          "type": "uint256"
        }
      ],
      "name": "Bridge",
      "type": "event"
    },
    {
      "anonymous": false,
      "inputs": [
        {
          "indexed": true,
          "internalType": "bytes32",
          "name": "role",
          "type": "bytes32"
        },
        {
          "indexed": true,
          "internalType": "bytes32",
          "name": "previousAdminRole",
          "type": "bytes32"
        },
        {
          "indexed": true,
          "internalType": "bytes32",
          "name": "newAdminRole",
          "type": "bytes32"
        }
      ],
      "name": "RoleAdminChanged",
      "type": "event"
    },
    {
      "anonymous": false,
      "inputs": [
        {
          "indexed": true,
          "internalType": "bytes32",
          "name": "role",
          "type": "bytes32"
        },
        {
          "indexed": true,
          "internalType": "address",
          "name": "account",
          "type": "address"
        },
        {
          "indexed": true,
          "internalType": "address",
          "name": "sender",
          "type": "address"
        }
      ],
      "name": "RoleGranted",
      "type": "event"
    },
    {
      "anonymous": false,
      "inputs": [
        {
          "indexed": true,
          "internalType": "bytes32",
          "name": "role",
          "type": "bytes32"
        },
        {
          "indexed": true,
          "internalType": "address",
          "name": "account",
          "type": "address"
        },
        {
          "indexed": true,
          "internalType": "address",
          "name": "sender",
          "type": "address"
        }
      ],
      "name": "RoleRevoked",
      "type": "event"
    },
    {
      "anonymous": false,
      "inputs": [
        {
          "indexed": true,
          "internalType": "address",
          "name": "from",
          "type": "address"
        },
        {
          "indexed": true,
          "internalType": "address",
          "name": "to",
          "type": "address"
        },
        {
          "indexed": false,
          "internalType": "uint256",
          "name": "value",
          "type": "uint256"
        }
      ],
      "name": "Transfer",
      "type": "event"
    },
    {
      "inputs": [],
      "name": "DEFAULT_ADMIN_ROLE",
      "outputs": [
        {
          "internalType": "bytes32",
          "name": "",
          "type": "bytes32"
        }
      ],
      "stateMutability": "view",
      "type": "function"
    },
    {
      "inputs": [],
      "name": "MINTER_ROLE",
      "outputs": [
        {
          "internalType": "bytes32",
          "name": "",
          "type": "bytes32"
        }
      ],
      "stateMutability": "view",
      "type": "function"
    },
    {
      "inputs": [
        {
          "internalType": "address",
          "name": "owner",
          "type": "address"
        },
        {
          "internalType": "address",
          "name": "spender",
          "type": "address"
        }
      ],
      "name": "allowance",
      "outputs": [
        {
          "internalType": "uint256",
          "name": "",
          "type": "uint256"
        }
      ],
      "stateMutability": "view",
      "type": "function"
    },
    {
      "inputs": [
        {
          "internalType": "address",
          "name": "spender",
          "type": "address"
        },
        {
          "internalType": "uint256",
          "name": "amount",
          "type": "uint256"
        }
      ],
      "name": "approve",
      "outputs": [
        {
          "internalType": "bool",
          "name": "",
          "type": "bool"
        }
      ],
      "stateMutability": "nonpayable",
      "type": "function"
    },
    {
      "inputs": [],
      "name": "assetCap",
      "outputs": [
        {
          "internalType": "uint256",
          "name": "",
          "type": "uint256"
        }
      ],
      "stateMutability": "view",
      "type": "function"
    },
    {
      "inputs": [
        {
          "internalType": "address",
          "name": "account",
          "type": "address"
        }
      ],
      "name": "balanceOf",
      "outputs": [
        {
          "internalType": "uint256",
          "name": "",
          "type": "uint256"
        }
      ],
      "stateMutability": "view",
      "type": "function"
    },
    {
      "inputs": [
        {
          "internalType": "uint256",
          "name": "amount",
          "type": "uint256"
        },
        {
          "internalType": "uint256",
          "name": "chainId",
          "type": "uint256"
        }
      ],
      "name": "bridge",
      "outputs": [],
      "stateMutability": "nonpayable",
      "type": "function"
    },
    {
      "inputs": [
        {
          "internalType": "uint256",
          "name": "amount",
          "type": "uint256"
        }
      ],
      "name": "burn",
      "outputs": [],
      "stateMutability": "nonpayable",
      "type": "function"
    },
    {
      "inputs": [
        {
          "internalType": "address",
          "name": "account",
          "type": "address"
        },
        {
          "internalType": "uint256",
          "name": "amount",
          "type": "uint256"
        }
      ],
      "name": "burnFrom",
      "outputs": [],
      "stateMutability": "nonpayable",
      "type": "function"
    },
    {
      "inputs": [
        {
          "internalType": "address",
          "name": "account",
          "type": "address"
        },
        {
          "internalType": "uint256",
          "name": "asset",
          "type": "uint256"
        }
      ],
      "name": "capAsset",
      "outputs": [
        {
          "internalType": "bool",
          "name": "",
          "type": "bool"
        }
      ],
      "stateMutability": "nonpayable",
      "type": "function"
    },
    {
      "inputs": [],
      "name": "decimals",
      "outputs": [
        {
          "internalType": "uint8",
          "name": "",
          "type": "uint8"
        }
      ],
      "stateMutability": "view",
      "type": "function"
    },
    {
      "inputs": [
        {
          "internalType": "address",
          "name": "spender",
          "type": "address"
        },
        {
          "internalType": "uint256",
          "name": "subtractedValue",
          "type": "uint256"
        }
      ],
      "name": "decreaseAllowance",
      "outputs": [
        {
          "internalType": "bool",
          "name": "",
          "type": "bool"
        }
      ],
      "stateMutability": "nonpayable",
      "type": "function"
    },
    {
      "inputs": [
        {
          "internalType": "bytes32",
          "name": "role",
          "type": "bytes32"
        }
      ],
      "name": "getRoleAdmin",
      "outputs": [
        {
          "internalType": "bytes32",
          "name": "",
          "type": "bytes32"
        }
      ],
      "stateMutability": "view",
      "type": "function"
    },
    {
      "inputs": [
        {
          "internalType": "bytes32",
          "name": "role",
          "type": "bytes32"
        },
        {
          "internalType": "address",
          "name": "account",
          "type": "address"
        }
      ],
      "name": "grantRole",
      "outputs": [],
      "stateMutability": "nonpayable",
      "type": "function"
    },
    {
      "inputs": [
        {
          "internalType": "bytes32",
          "name": "role",
          "type": "bytes32"
        },
        {
          "internalType": "address",
          "name": "account",
          "type": "address"
        }
      ],
      "name": "hasRole",
      "outputs": [
        {
          "internalType": "bool",
          "name": "",
          "type": "bool"
        }
      ],
      "stateMutability": "view",
      "type": "function"
    },
    {
      "inputs": [
        {
          "internalType": "address",
          "name": "spender",
          "type": "address"
        },
        {
          "internalType": "uint256",
          "name": "addedValue",
          "type": "uint256"
        }
      ],
      "name": "increaseAllowance",
      "outputs": [
        {
          "internalType": "bool",
          "name": "",
          "type": "bool"
        }
      ],
      "stateMutability": "nonpayable",
      "type": "function"
    },
    {
      "inputs": [
        {
          "internalType": "address",
          "name": "account",
          "type": "address"
        },
        {
          "internalType": "uint256",
          "name": "amount",
          "type": "uint256"
        }
      ],
      "name": "mintDbx",
      "outputs": [
        {
          "internalType": "bool",
          "name": "",
          "type": "bool"
        }
      ],
      "stateMutability": "nonpayable",
      "type": "function"
    },
    {
      "inputs": [],
      "name": "name",
      "outputs": [
        {
          "internalType": "string",
          "name": "",
          "type": "string"
        }
      ],
      "stateMutability": "view",
      "type": "function"
    },
    {
      "inputs": [
        {
          "internalType": "bytes32",
          "name": "role",
          "type": "bytes32"
        },
        {
          "internalType": "address",
          "name": "account",
          "type": "address"
        }
      ],
      "name": "renounceRole",
      "outputs": [],
      "stateMutability": "nonpayable",
      "type": "function"
    },
    {
      "inputs": [
        {
          "internalType": "bytes32",
          "name": "role",
          "type": "bytes32"
        },
        {
          "internalType": "address",
          "name": "account",
          "type": "address"
        }
      ],
      "name": "revokeRole",
      "outputs": [],
      "stateMutability": "nonpayable",
      "type": "function"
    },
    {
      "inputs": [
        {
          "internalType": "bytes4",
          "name": "interfaceId",
          "type": "bytes4"
        }
      ],
      "name": "supportsInterface",
      "outputs": [
        {
          "internalType": "bool",
          "name": "",
          "type": "bool"
        }
      ],
      "stateMutability": "view",
      "type": "function"
    },
    {
      "inputs": [],
      "name": "symbol",
      "outputs": [
        {
          "internalType": "string",
          "name": "",
          "type": "string"
        }
      ],
      "stateMutability": "view",
      "type": "function"
    },
    {
      "inputs": [],
      "name": "totalAsset",
      "outputs": [
        {
          "internalType": "uint256",
          "name": "",
          "type": "uint256"
        }
      ],
      "stateMutability": "view",
      "type": "function"
    },
    {
      "inputs": [],
      "name": "totalIssued",
      "outputs": [
        {
          "internalType": "uint256",
          "name": "",
          "type": "uint256"
        }
      ],
      "stateMutability": "view",
      "type": "function"
    },
    {
      "inputs": [
        {
          "internalType": "address",
          "name": "node",
          "type": "address"
        }
      ],
      "name": "totalNodeAsset",
      "outputs": [
        {
          "internalType": "uint256",
          "name": "",
          "type": "uint256"
        }
      ],
      "stateMutability": "view",
      "type": "function"
    },
    {
      "inputs": [
        {
          "internalType": "address",
          "name": "node",
          "type": "address"
        }
      ],
      "name": "totalNodeUsd",
      "outputs": [
        {
          "internalType": "uint256",
          "name": "",
          "type": "uint256"
        }
      ],
      "stateMutability": "view",
      "type": "function"
    },
    {
      "inputs": [],
      "name": "totalSupply",
      "outputs": [
        {
          "internalType": "uint256",
          "name": "",
          "type": "uint256"
        }
      ],
      "stateMutability": "view",
      "type": "function"
    },
    {
      "inputs": [
        {
          "internalType": "address",
          "name": "to",
          "type": "address"
        },
        {
          "internalType": "uint256",
          "name": "amount",
          "type": "uint256"
        }
      ],
      "name": "transfer",
      "outputs": [
        {
          "internalType": "bool",
          "name": "",
          "type": "bool"
        }
      ],
      "stateMutability": "nonpayable",
      "type": "function"
    },
    {
      "inputs": [
        {
          "internalType": "address",
          "name": "from",
          "type": "address"
        },
        {
          "internalType": "address",
          "name": "to",
          "type": "address"
        },
        {
          "internalType": "uint256",
          "name": "amount",
          "type": "uint256"
        }
      ],
      "name": "transferFrom",
      "outputs": [
        {
          "internalType": "bool",
          "name": "",
          "type": "bool"
        }
      ],
      "stateMutability": "nonpayable",
      "type": "function"
    },
    {
      "inputs": [],
      "name": "version",
      "outputs": [
        {
          "internalType": "uint256",
          "name": "",
          "type": "uint256"
        }
      ],
      "stateMutability": "pure",
      "type": "function"
    }
  ],
  "bytecode": "0x60a06040523480156200001157600080fd5b506040516200337b3803806200337b833981810160405281019062000037919062000348565b6040518060400160405280600b81526020017f4d5644627820546f6b656e0000000000000000000000000000000000000000008152506040518060400160405280600581526020017f4d564442580000000000000000000000000000000000000000000000000000008152508160039081620000b49190620005ff565b508060049081620000c69190620005ff565b505050816080818152505080600660006101000a81548173ffffffffffffffffffffffffffffffffffffffff021916908373ffffffffffffffffffffffffffffffffffffffff160217905550620001366000801b6200012a6200013e60201b60201c565b6200014660201b60201c565b5050620006e6565b600033905090565b6200015882826200023860201b60201c565b620002345760016005600084815260200190815260200160002060000160008373ffffffffffffffffffffffffffffffffffffffff1673ffffffffffffffffffffffffffffffffffffffff16815260200190815260200160002060006101000a81548160ff021916908315150217905550620001d96200013e60201b60201c565b73ffffffffffffffffffffffffffffffffffffffff168173ffffffffffffffffffffffffffffffffffffffff16837f2f8788117e7eff1d82e926ec794901d17c78024a50270940304540a733656f0d60405160405180910390a45b5050565b60006005600084815260200190815260200160002060000160008373ffffffffffffffffffffffffffffffffffffffff1673ffffffffffffffffffffffffffffffffffffffff16815260200190815260200160002060009054906101000a900460ff16905092915050565b600080fd5b6000819050919050565b620002bd81620002a8565b8114620002c957600080fd5b50565b600081519050620002dd81620002b2565b92915050565b600073ffffffffffffffffffffffffffffffffffffffff82169050919050565b60006200031082620002e3565b9050919050565b620003228162000303565b81146200032e57600080fd5b50565b600081519050620003428162000317565b92915050565b60008060408385031215620003625762000361620002a3565b5b60006200037285828601620002cc565b9250506020620003858582860162000331565b9150509250929050565b600081519050919050565b7f4e487b7100000000000000000000000000000000000000000000000000000000600052604160045260246000fd5b7f4e487b7100000000000000000000000000000000000000000000000000000000600052602260045260246000fd5b600060028204905060018216806200041157607f821691505b602082108103620004275762000426620003c9565b5b50919050565b60008190508160005260206000209050919050565b60006020601f8301049050919050565b600082821b905092915050565b600060088302620004917fffffffffffffffffffffffffffffffffffffffffffffffffffffffffffffffff8262000452565b6200049d868362000452565b95508019841693508086168417925050509392505050565b6000819050919050565b6000620004e0620004da620004d484620002a8565b620004b5565b620002a8565b9050919050565b6000819050919050565b620004fc83620004bf565b620005146200050b82620004e7565b8484546200045f565b825550505050565b600090565b6200052b6200051c565b62000538818484620004f1565b505050565b5b8181101562000560576200055460008262000521565b6001810190506200053e565b5050565b601f821115620005af5762000579816200042d565b620005848462000442565b8101602085101562000594578190505b620005ac620005a38562000442565b8301826200053d565b50505b505050565b600082821c905092915050565b6000620005d460001984600802620005b4565b1980831691505092915050565b6000620005ef8383620005c1565b9150826002028217905092915050565b6200060a826200038f565b67ffffffffffffffff8111156200062657620006256200039a565b5b620006328254620003f8565b6200063f82828562000564565b600060209050601f83116001811462000677576000841562000662578287015190505b6200066e8582620005e1565b865550620006de565b601f19841662000687866200042d565b60005b82811015620006b1578489015182556001820191506020850194506020810190506200068a565b86831015620006d15784890151620006cd601f891682620005c1565b8355505b6001600288020188555050505b505050505050565b608051612c7262000709600039600081816107b001526109fe0152612c726000f3fe608060405234801561001057600080fd5b50600436106101da5760003560e01c806379cc679011610104578063cbae8e21116100a2578063db88f47811610071578063db88f478146105b7578063dd62ed3e146105e7578063f5be319314610617578063f9557ccb14610635576101da565b8063cbae8e2114610531578063d135b1221461054d578063d53913931461057d578063d547741f1461059b576101da565b8063a217fddf116100de578063a217fddf14610483578063a457c2d7146104a1578063a9059cbb146104d1578063c7cb66f614610501576101da565b806379cc67901461041957806391d148541461043557806395d89b4114610465576101da565b80632f2ff15d1161017c578063395093511161014b578063395093511461037f57806342966c68146103af57806354fd4d50146103cb57806370a08231146103e9576101da565b80632f2ff15d1461030b578063313ce5671461032757806336568abe14610345578063376c9cf814610361576101da565b80630b0511ee116101b85780630b0511ee1461025d57806318160ddd1461028d57806323b872dd146102ab578063248a9ca3146102db576101da565b806301ffc9a7146101df57806306fdde031461020f578063095ea7b31461022d575b600080fd5b6101f960048036038101906101f49190611cfb565b610653565b6040516102069190611d43565b60405180910390f35b6102176106cd565b6040516102249190611dee565b60405180910390f35b61024760048036038101906102429190611ea4565b61075f565b6040516102549190611d43565b60405180910390f35b61027760048036038101906102729190611ea4565b610782565b6040516102849190611d43565b60405180910390f35b6102956108f6565b6040516102a29190611ef3565b60405180910390f35b6102c560048036038101906102c09190611f0e565b610900565b6040516102d29190611d43565b60405180910390f35b6102f560048036038101906102f09190611f97565b61092f565b6040516103029190611fd3565b60405180910390f35b61032560048036038101906103209190611fee565b61094f565b005b61032f610970565b60405161033c919061204a565b60405180910390f35b61035f600480360381019061035a9190611fee565b610979565b005b6103696109fc565b6040516103769190611ef3565b60405180910390f35b61039960048036038101906103949190611ea4565b610a20565b6040516103a69190611d43565b60405180910390f35b6103c960048036038101906103c49190612065565b610a57565b005b6103d3610a6b565b6040516103e09190611ef3565b60405180910390f35b61040360048036038101906103fe9190612092565b610a74565b6040516104109190611ef3565b60405180910390f35b610433600480360381019061042e9190611ea4565b610abc565b005b61044f600480360381019061044a9190611fee565b610adc565b60405161045c9190611d43565b60405180910390f35b61046d610b47565b60405161047a9190611dee565b60405180910390f35b61048b610bd9565b6040516104989190611fd3565b60405180910390f35b6104bb60048036038101906104b69190611ea4565b610be0565b6040516104c89190611d43565b60405180910390f35b6104eb60048036038101906104e69190611ea4565b610c57565b6040516104f89190611d43565b60405180910390f35b61051b60048036038101906105169190612092565b610c7a565b6040516105289190611ef3565b60405180910390f35b61054b600480360381019061054691906120bf565b610cc3565b005b61056760048036038101906105629190611ea4565b610d2f565b6040516105749190611d43565b60405180910390f35b610585610d89565b6040516105929190611fd3565b60405180910390f35b6105b560048036038101906105b09190611fee565b610dad565b005b6105d160048036038101906105cc9190612092565b610dce565b6040516105de9190611ef3565b60405180910390f35b61060160048036038101906105fc91906120ff565b610e17565b60405161060e9190611ef3565b60405180910390f35b61061f610e9e565b60405161062c9190611ef3565b60405180910390f35b61063d610ea8565b60405161064a9190611ef3565b60405180910390f35b60007f7965db0b000000000000000000000000000000000000000000000000000000007bffffffffffffffffffffffffffffffffffffffffffffffffffffffff1916827bffffffffffffffffffffffffffffffffffffffffffffffffffffffff191614806106c657506106c582610eb2565b5b9050919050565b6060600380546106dc9061216e565b80601f01602080910402602001604051908101604052809291908181526020018280546107089061216e565b80156107555780601f1061072a57610100808354040283529160200191610755565b820191906000526020600020905b81548152906001019060200180831161073857829003601f168201915b5050505050905090565b60008061076a610f1c565b9050610777818585610f24565b600191505092915050565b60007f9f2df0fed2c77648de5860a4cc508cd0818c85b8b8a1ab4ceeef8d981c8956a66107ae816110ed565b7f0000000000000000000000000000000000000000000000000000000000000000836008546107dd91906121ce565b111561081e576040517f08c379a00000000000000000000000000000000000000000000000000000000081526004016108159061224e565b60405180910390fd5b826008600082825461083091906121ce565b9250508190555082600960008673ffffffffffffffffffffffffffffffffffffffff1673ffffffffffffffffffffffffffffffffffffffff168152602001908152602001600020600082825461088691906121ce565b9250508190555061089683611101565b600a60008673ffffffffffffffffffffffffffffffffffffffff1673ffffffffffffffffffffffffffffffffffffffff16815260200190815260200160002060008282546108e491906121ce565b92505081905550600191505092915050565b6000600254905090565b60008061090b610f1c565b90506109188582856111be565b61092385858561124a565b60019150509392505050565b600060056000838152602001908152602001600020600101549050919050565b6109588261092f565b610961816110ed565b61096b83836114c0565b505050565b60006012905090565b610981610f1c565b73ffffffffffffffffffffffffffffffffffffffff168173ffffffffffffffffffffffffffffffffffffffff16146109ee576040517f08c379a00000000000000000000000000000000000000000000000000000000081526004016109e5906122e0565b60405180910390fd5b6109f882826115a1565b5050565b7f000000000000000000000000000000000000000000000000000000000000000081565b600080610a2b610f1c565b9050610a4c818585610a3d8589610e17565b610a4791906121ce565b610f24565b600191505092915050565b610a68610a62610f1c565b82611683565b50565b6000600a905090565b60008060008373ffffffffffffffffffffffffffffffffffffffff1673ffffffffffffffffffffffffffffffffffffffff168152602001908152602001600020549050919050565b610ace82610ac8610f1c565b836111be565b610ad88282611683565b5050565b60006005600084815260200190815260200160002060000160008373ffffffffffffffffffffffffffffffffffffffff1673ffffffffffffffffffffffffffffffffffffffff16815260200190815260200160002060009054906101000a900460ff16905092915050565b606060048054610b569061216e565b80601f0160208091040260200160405190810160405280929190818152602001828054610b829061216e565b8015610bcf5780601f10610ba457610100808354040283529160200191610bcf565b820191906000526020600020905b815481529060010190602001808311610bb257829003601f168201915b5050505050905090565b6000801b81565b600080610beb610f1c565b90506000610bf98286610e17565b905083811015610c3e576040517f08c379a0000000000000000000000000000000000000000000000000000000008152600401610c3590612372565b60405180910390fd5b610c4b8286868403610f24565b60019250505092915050565b600080610c62610f1c565b9050610c6f81858561124a565b600191505092915050565b6000600960008373ffffffffffffffffffffffffffffffffffffffff1673ffffffffffffffffffffffffffffffffffffffff168152602001908152602001600020549050919050565b610cd4610cce610f1c565b83611683565b610cdc610f1c565b73ffffffffffffffffffffffffffffffffffffffff167fdeb96a3e5294fabe38d8824397be657fbe695d61f3457274027345cca6f26aaa8383604051610d23929190612392565b60405180910390a25050565b60007f9f2df0fed2c77648de5860a4cc508cd0818c85b8b8a1ab4ceeef8d981c8956a6610d5b816110ed565b610d658484611850565b8260076000828254610d7791906121ce565b92505081905550600191505092915050565b7f9f2df0fed2c77648de5860a4cc508cd0818c85b8b8a1ab4ceeef8d981c8956a681565b610db68261092f565b610dbf816110ed565b610dc983836115a1565b505050565b6000600a60008373ffffffffffffffffffffffffffffffffffffffff1673ffffffffffffffffffffffffffffffffffffffff168152602001908152602001600020549050919050565b6000600160008473ffffffffffffffffffffffffffffffffffffffff1673ffffffffffffffffffffffffffffffffffffffff16815260200190815260200160002060008373ffffffffffffffffffffffffffffffffffffffff1673ffffffffffffffffffffffffffffffffffffffff16815260200190815260200160002054905092915050565b6000600754905090565b6000600854905090565b60007f01ffc9a7000000000000000000000000000000000000000000000000000000007bffffffffffffffffffffffffffffffffffffffffffffffffffffffff1916827bffffffffffffffffffffffffffffffffffffffffffffffffffffffff1916149050919050565b600033905090565b600073ffffffffffffffffffffffffffffffffffffffff168373ffffffffffffffffffffffffffffffffffffffff1603610f93576040517f08c379a0000000000000000000000000000000000000000000000000000000008152600401610f8a9061242d565b60405180910390fd5b600073ffffffffffffffffffffffffffffffffffffffff168273ffffffffffffffffffffffffffffffffffffffff1603611002576040517f08c379a0000000000000000000000000000000000000000000000000000000008152600401610ff9906124bf565b60405180910390fd5b80600160008573ffffffffffffffffffffffffffffffffffffffff1673ffffffffffffffffffffffffffffffffffffffff16815260200190815260200160002060008473ffffffffffffffffffffffffffffffffffffffff1673ffffffffffffffffffffffffffffffffffffffff168152602001908152602001600020819055508173ffffffffffffffffffffffffffffffffffffffff168373ffffffffffffffffffffffffffffffffffffffff167f8c5be1e5ebec7d5bd14f71427d1e84f3dd0314c0f7b2291e5b200ac8c7c3b925836040516110e09190611ef3565b60405180910390a3505050565b6110fe816110f9610f1c565b6119a6565b50565b600080600660009054906101000a900473ffffffffffffffffffffffffffffffffffffffff1673ffffffffffffffffffffffffffffffffffffffff1663feaf968c6040518163ffffffff1660e01b815260040160a060405180830381865afa158015611171573d6000803e3d6000fd5b505050506040513d601f19601f82011682018060405250810190611195919061256c565b5050509150506305f5e10081846111ac91906125e7565b6111b69190612658565b915050919050565b60006111ca8484610e17565b90507fffffffffffffffffffffffffffffffffffffffffffffffffffffffffffffffff81146112445781811015611236576040517f08c379a000000000000000000000000000000000000000000000000000000000815260040161122d906126d5565b60405180910390fd5b6112438484848403610f24565b5b50505050565b600073ffffffffffffffffffffffffffffffffffffffff168373ffffffffffffffffffffffffffffffffffffffff16036112b9576040517f08c379a00000000000000000000000000000000000000000000000000000000081526004016112b090612767565b60405180910390fd5b600073ffffffffffffffffffffffffffffffffffffffff168273ffffffffffffffffffffffffffffffffffffffff1603611328576040517f08c379a000000000000000000000000000000000000000000000000000000000815260040161131f906127f9565b60405180910390fd5b611333838383611a2b565b60008060008573ffffffffffffffffffffffffffffffffffffffff1673ffffffffffffffffffffffffffffffffffffffff168152602001908152602001600020549050818110156113b9576040517f08c379a00000000000000000000000000000000000000000000000000000000081526004016113b09061288b565b60405180910390fd5b8181036000808673ffffffffffffffffffffffffffffffffffffffff1673ffffffffffffffffffffffffffffffffffffffff16815260200190815260200160002081905550816000808573ffffffffffffffffffffffffffffffffffffffff1673ffffffffffffffffffffffffffffffffffffffff168152602001908152602001600020600082825401925050819055508273ffffffffffffffffffffffffffffffffffffffff168473ffffffffffffffffffffffffffffffffffffffff167fddf252ad1be2c89b69c2b068fc378daa952ba7f163c4a11628f55a4df523b3ef846040516114a79190611ef3565b60405180910390a36114ba848484611a30565b50505050565b6114ca8282610adc565b61159d5760016005600084815260200190815260200160002060000160008373ffffffffffffffffffffffffffffffffffffffff1673ffffffffffffffffffffffffffffffffffffffff16815260200190815260200160002060006101000a81548160ff021916908315150217905550611542610f1c565b73ffffffffffffffffffffffffffffffffffffffff168173ffffffffffffffffffffffffffffffffffffffff16837f2f8788117e7eff1d82e926ec794901d17c78024a50270940304540a733656f0d60405160405180910390a45b5050565b6115ab8282610adc565b1561167f5760006005600084815260200190815260200160002060000160008373ffffffffffffffffffffffffffffffffffffffff1673ffffffffffffffffffffffffffffffffffffffff16815260200190815260200160002060006101000a81548160ff021916908315150217905550611624610f1c565b73ffffffffffffffffffffffffffffffffffffffff168173ffffffffffffffffffffffffffffffffffffffff16837ff6391f5c32d9c69d2a47ea670b442974b53935d1edc7fd64eb21e047a839171b60405160405180910390a45b5050565b600073ffffffffffffffffffffffffffffffffffffffff168273ffffffffffffffffffffffffffffffffffffffff16036116f2576040517f08c379a00000000000000000000000000000000000000000000000000000000081526004016116e99061291d565b60405180910390fd5b6116fe82600083611a2b565b60008060008473ffffffffffffffffffffffffffffffffffffffff1673ffffffffffffffffffffffffffffffffffffffff16815260200190815260200160002054905081811015611784576040517f08c379a000000000000000000000000000000000000000000000000000000000815260040161177b906129af565b60405180910390fd5b8181036000808573ffffffffffffffffffffffffffffffffffffffff1673ffffffffffffffffffffffffffffffffffffffff1681526020019081526020016000208190555081600260008282540392505081905550600073ffffffffffffffffffffffffffffffffffffffff168373ffffffffffffffffffffffffffffffffffffffff167fddf252ad1be2c89b69c2b068fc378daa952ba7f163c4a11628f55a4df523b3ef846040516118379190611ef3565b60405180910390a361184b83600084611a30565b505050565b600073ffffffffffffffffffffffffffffffffffffffff168273ffffffffffffffffffffffffffffffffffffffff16036118bf576040517f08c379a00000000000000000000000000000000000000000000000000000000081526004016118b690612a1b565b60405180910390fd5b6118cb60008383611a2b565b80600260008282546118dd91906121ce565b92505081905550806000808473ffffffffffffffffffffffffffffffffffffffff1673ffffffffffffffffffffffffffffffffffffffff168152602001908152602001600020600082825401925050819055508173ffffffffffffffffffffffffffffffffffffffff16600073ffffffffffffffffffffffffffffffffffffffff167fddf252ad1be2c89b69c2b068fc378daa952ba7f163c4a11628f55a4df523b3ef8360405161198e9190611ef3565b60405180910390a36119a260008383611a30565b5050565b6119b08282610adc565b611a27576119bd81611a35565b6119cb8360001c6020611a62565b6040516020016119dc929190612b0f565b6040516020818303038152906040526040517f08c379a0000000000000000000000000000000000000000000000000000000008152600401611a1e9190611dee565b60405180910390fd5b5050565b505050565b505050565b6060611a5b8273ffffffffffffffffffffffffffffffffffffffff16601460ff16611a62565b9050919050565b606060006002836002611a7591906125e7565b611a7f91906121ce565b67ffffffffffffffff811115611a9857611a97612b49565b5b6040519080825280601f01601f191660200182016040528015611aca5781602001600182028036833780820191505090505b5090507f300000000000000000000000000000000000000000000000000000000000000081600081518110611b0257611b01612b78565b5b60200101907effffffffffffffffffffffffffffffffffffffffffffffffffffffffffffff1916908160001a9053507f780000000000000000000000000000000000000000000000000000000000000081600181518110611b6657611b65612b78565b5b60200101907effffffffffffffffffffffffffffffffffffffffffffffffffffffffffffff1916908160001a90535060006001846002611ba691906125e7565b611bb091906121ce565b90505b6001811115611c50577f3031323334353637383961626364656600000000000000000000000000000000600f861660108110611bf257611bf1612b78565b5b1a60f81b828281518110611c0957611c08612b78565b5b60200101907effffffffffffffffffffffffffffffffffffffffffffffffffffffffffffff1916908160001a905350600485901c945080611c4990612ba7565b9050611bb3565b5060008414611c94576040517f08c379a0000000000000000000000000000000000000000000000000000000008152600401611c8b90612c1c565b60405180910390fd5b8091505092915050565b600080fd5b60007fffffffff0000000000000000000000000000000000000000000000000000000082169050919050565b611cd881611ca3565b8114611ce357600080fd5b50565b600081359050611cf581611ccf565b92915050565b600060208284031215611d1157611d10611c9e565b5b6000611d1f84828501611ce6565b91505092915050565b60008115159050919050565b611d3d81611d28565b82525050565b6000602082019050611d586000830184611d34565b92915050565b600081519050919050565b600082825260208201905092915050565b60005b83811015611d98578082015181840152602081019050611d7d565b60008484015250505050565b6000601f19601f8301169050919050565b6000611dc082611d5e565b611dca8185611d69565b9350611dda818560208601611d7a565b611de381611da4565b840191505092915050565b60006020820190508181036000830152611e088184611db5565b905092915050565b600073ffffffffffffffffffffffffffffffffffffffff82169050919050565b6000611e3b82611e10565b9050919050565b611e4b81611e30565b8114611e5657600080fd5b50565b600081359050611e6881611e42565b92915050565b6000819050919050565b611e8181611e6e565b8114611e8c57600080fd5b50565b600081359050611e9e81611e78565b92915050565b60008060408385031215611ebb57611eba611c9e565b5b6000611ec985828601611e59565b9250506020611eda85828601611e8f565b9150509250929050565b611eed81611e6e565b82525050565b6000602082019050611f086000830184611ee4565b92915050565b600080600060608486031215611f2757611f26611c9e565b5b6000611f3586828701611e59565b9350506020611f4686828701611e59565b9250506040611f5786828701611e8f565b9150509250925092565b6000819050919050565b611f7481611f61565b8114611f7f57600080fd5b50565b600081359050611f9181611f6b565b92915050565b600060208284031215611fad57611fac611c9e565b5b6000611fbb84828501611f82565b91505092915050565b611fcd81611f61565b82525050565b6000602082019050611fe86000830184611fc4565b92915050565b6000806040838503121561200557612004611c9e565b5b600061201385828601611f82565b925050602061202485828601611e59565b9150509250929050565b600060ff82169050919050565b6120448161202e565b82525050565b600060208201905061205f600083018461203b565b92915050565b60006020828403121561207b5761207a611c9e565b5b600061208984828501611e8f565b91505092915050565b6000602082840312156120a8576120a7611c9e565b5b60006120b684828501611e59565b91505092915050565b600080604083850312156120d6576120d5611c9e565b5b60006120e485828601611e8f565b92505060206120f585828601611e8f565b9150509250929050565b6000806040838503121561211657612115611c9e565b5b600061212485828601611e59565b925050602061213585828601611e59565b9150509250929050565b7f4e487b7100000000000000000000000000000000000000000000000000000000600052602260045260246000fd5b6000600282049050600182168061218657607f821691505b6020821081036121995761219861213f565b5b50919050565b7f4e487b7100000000000000000000000000000000000000000000000000000000600052601160045260246000fd5b60006121d982611e6e565b91506121e483611e6e565b92508282019050808211156121fc576121fb61219f565b5b92915050565b7f4d56446278546f6b656e3a204173736574206361702072656163686564000000600082015250565b6000612238601d83611d69565b915061224382612202565b602082019050919050565b600060208201905081810360008301526122678161222b565b9050919050565b7f416363657373436f6e74726f6c3a2063616e206f6e6c792072656e6f756e636560008201527f20726f6c657320666f722073656c660000000000000000000000000000000000602082015250565b60006122ca602f83611d69565b91506122d58261226e565b604082019050919050565b600060208201905081810360008301526122f9816122bd565b9050919050565b7f45524332303a2064656372656173656420616c6c6f77616e63652062656c6f7760008201527f207a65726f000000000000000000000000000000000000000000000000000000602082015250565b600061235c602583611d69565b915061236782612300565b604082019050919050565b6000602082019050818103600083015261238b8161234f565b9050919050565b60006040820190506123a76000830185611ee4565b6123b46020830184611ee4565b9392505050565b7f45524332303a20617070726f76652066726f6d20746865207a65726f2061646460008201527f7265737300000000000000000000000000000000000000000000000000000000602082015250565b6000612417602483611d69565b9150612422826123bb565b604082019050919050565b600060208201905081810360008301526124468161240a565b9050919050565b7f45524332303a20617070726f766520746f20746865207a65726f20616464726560008201527f7373000000000000000000000000000000000000000000000000000000000000602082015250565b60006124a9602283611d69565b91506124b48261244d565b604082019050919050565b600060208201905081810360008301526124d88161249c565b9050919050565b600069ffffffffffffffffffff82169050919050565b6124fe816124df565b811461250957600080fd5b50565b60008151905061251b816124f5565b92915050565b6000819050919050565b61253481612521565b811461253f57600080fd5b50565b6000815190506125518161252b565b92915050565b60008151905061256681611e78565b92915050565b600080600080600060a0868803121561258857612587611c9e565b5b60006125968882890161250c565b95505060206125a788828901612542565b94505060406125b888828901612557565b93505060606125c988828901612557565b92505060806125da8882890161250c565b9150509295509295909350565b60006125f282611e6e565b91506125fd83611e6e565b925082820261260b81611e6e565b915082820484148315176126225761262161219f565b5b5092915050565b7f4e487b7100000000000000000000000000000000000000000000000000000000600052601260045260246000fd5b600061266382611e6e565b915061266e83611e6e565b92508261267e5761267d612629565b5b828204905092915050565b7f45524332303a20696e73756666696369656e7420616c6c6f77616e6365000000600082015250565b60006126bf601d83611d69565b91506126ca82612689565b602082019050919050565b600060208201905081810360008301526126ee816126b2565b9050919050565b7f45524332303a207472616e736665722066726f6d20746865207a65726f20616460008201527f6472657373000000000000000000000000000000000000000000000000000000602082015250565b6000612751602583611d69565b915061275c826126f5565b604082019050919050565b6000602082019050818103600083015261278081612744565b9050919050565b7f45524332303a207472616e7366657220746f20746865207a65726f206164647260008201527f6573730000000000000000000000000000000000000000000000000000000000602082015250565b60006127e3602383611d69565b91506127ee82612787565b604082019050919050565b60006020820190508181036000830152612812816127d6565b9050919050565b7f45524332303a207472616e7366657220616d6f756e742065786365656473206260008201527f616c616e63650000000000000000000000000000000000000000000000000000602082015250565b6000612875602683611d69565b915061288082612819565b604082019050919050565b600060208201905081810360008301526128a481612868565b9050919050565b7f45524332303a206275726e2066726f6d20746865207a65726f2061646472657360008201527f7300000000000000000000000000000000000000000000000000000000000000602082015250565b6000612907602183611d69565b9150612912826128ab565b604082019050919050565b60006020820190508181036000830152612936816128fa565b9050919050565b7f45524332303a206275726e20616d6f756e7420657863656564732062616c616e60008201527f6365000000000000000000000000000000000000000000000000000000000000602082015250565b6000612999602283611d69565b91506129a48261293d565b604082019050919050565b600060208201905081810360008301526129c88161298c565b9050919050565b7f45524332303a206d696e7420746f20746865207a65726f206164647265737300600082015250565b6000612a05601f83611d69565b9150612a10826129cf565b602082019050919050565b60006020820190508181036000830152612a34816129f8565b9050919050565b600081905092915050565b7f416363657373436f6e74726f6c3a206163636f756e7420000000000000000000600082015250565b6000612a7c601783612a3b565b9150612a8782612a46565b601782019050919050565b6000612a9d82611d5e565b612aa78185612a3b565b9350612ab7818560208601611d7a565b80840191505092915050565b7f206973206d697373696e6720726f6c6520000000000000000000000000000000600082015250565b6000612af9601183612a3b565b9150612b0482612ac3565b601182019050919050565b6000612b1a82612a6f565b9150612b268285612a92565b9150612b3182612aec565b9150612b3d8284612a92565b91508190509392505050565b7f4e487b7100000000000000000000000000000000000000000000000000000000600052604160045260246000fd5b7f4e487b7100000000000000000000000000000000000000000000000000000000600052603260045260246000fd5b6000612bb282611e6e565b915060008203612bc557612bc461219f565b5b600182039050919050565b7f537472696e67733a20686578206c656e67746820696e73756666696369656e74600082015250565b6000612c06602083611d69565b9150612c1182612bd0565b602082019050919050565b60006020820190508181036000830152612c3581612bf9565b905091905056fea26469706673582212209e2a65f3a3b8cb74ea0b619f3f7b116234fbdb410a7dd8f635c6bda1deec526e64736f6c63430008140033",
  "linkReferences": {},
  "deployedLinkReferences": {}
}