{
  "_format": "hh-sol-artifact-1",
  "contractName": "MockDataFeed",
  "sourceName": "contracts/mockDataFeed.sol",
  "abi": [
    {
      "inputs": [
        {
          "internalType": "int256",
          "name": "initialAnswer",
          "type": "int256"
        }
      ],
      "stateMutability": "nonpayable",
      "type": "constructor"
    },
    {
      "anonymous": false,
      "inputs": [
        {
          "indexed": true,
          "internalType": "int256",
          "name": "answer",
          "type": "int256"
        },
        {
          "indexed": true,
          "internalType": "uint256",
          "name": "timestamp",
          "type": "uint256"
        },
        {
          "indexed": true,
          "internalType": "uint80",
          "name": "round",
          "type": "uint80"
        }
      ],
      "name": "AnswerUpdated",
      "type": "event"
    },
    {
      "inputs": [],
      "name": "decimals",
      "outputs": [
        {
          "internalType": "uint8",
          "name": "",
          "type": "uint8"
        }
      ],
      "stateMutability": "pure",
      "type": "function"
    },
    {
      "inputs": [],
      "name": "description",
      "outputs": [
        {
          "internalType": "string",
          "name": "",
          "type": "string"
        }
      ],
      "stateMutability": "pure",
      "type": "function"
    },
    {
      "inputs": [
        {
          "internalType": "uint80",
          "name": "_roundId",
          "type": "uint80"
        }
      ],
      "name": "getRoundData",
      "outputs": [
        {
          "internalType": "uint80",
          "name": "roundId",
          "type": "uint80"
        },
        {
          "internalType": "int256",
          "name": "answer",
          "type": "int256"
        },
        {
          "internalType": "uint256",
          "name": "startedAt",
          "type": "uint256"
        },
        {
          "internalType": "uint256",
          "name": "updatedAt",
          "type": "uint256"
        },
        {
          "internalType": "uint80",
          "name": "answeredInRound",
          "type": "uint80"
        }
      ],
      "stateMutability": "view",
      "type": "function"
    },
    {
      "inputs": [],
      "name": "latestRoundData",
      "outputs": [
        {
          "internalType": "uint80",
          "name": "roundId",
          "type": "uint80"
        },
        {
          "internalType": "int256",
          "name": "answer",
          "type": "int256"
        },
        {
          "internalType": "uint256",
          "name": "startedAt",
          "type": "uint256"
        },
        {
          "internalType": "uint256",
          "name": "updatedAt",
          "type": "uint256"
        },
        {
          "internalType": "uint80",
          "name": "answeredInRound",
          "type": "uint80"
        }
      ],
      "stateMutability": "view",
      "type": "function"
    },
    {
      "inputs": [
        {
          "internalType": "int256",
          "name": "answer",
          "type": "int256"
        }
      ],
      "name": "setLatestAnswer",
      "outputs": [],
      "stateMutability": "nonpayable",
      "type": "function"
    },
    {
      "inputs": [],
      "name": "version",
      "outputs": [
        {
          "internalType": "uint256",
          "name": "",
          "type": "uint256"
        }
      ],
      "stateMutability": "pure",
      "type": "function"
    }
  ],
  "bytecode": "0x608060405234801561001057600080fd5b5060405161077b38038061077b833981810160405281019061003291906100af565b80600081905550426001819055506001600260006101000a81548169ffffffffffffffffffff021916908369ffffffffffffffffffff160217905550506100dc565b600080fd5b6000819050919050565b61008c81610079565b811461009757600080fd5b50565b6000815190506100a981610083565b92915050565b6000602082840312156100c5576100c4610074565b5b60006100d38482850161009a565b91505092915050565b610690806100eb6000396000f3fe608060405234801561001057600080fd5b50600436106100625760003560e01c806304ea97b014610067578063313ce5671461008357806354fd4d50146100a15780637284e416146100bf5780639a6fc8f5146100dd578063feaf968c14610111575b600080fd5b610081600480360381019061007c9190610363565b610133565b005b61008b6101ec565b60405161009891906103ac565b60405180910390f35b6100a96101f5565b6040516100b691906103e0565b60405180910390f35b6100c76101fe565b6040516100d4919061048b565b60405180910390f35b6100f760048036038101906100f291906104ef565b61023b565b60405161010895949392919061053a565b60405180910390f35b6101196102d4565b60405161012a95949392919061053a565b60405180910390f35b80600081905550426001819055506002600081819054906101000a900469ffffffffffffffffffff1680929190610169906105bc565b91906101000a81548169ffffffffffffffffffff021916908369ffffffffffffffffffff16021790555050600260009054906101000a900469ffffffffffffffffffff1669ffffffffffffffffffff16600154827f036787e23fca0e09d7e3af9a88d1caab9d03be176faa185d8234c7c0ad38568260405160405180910390a450565b60006008905090565b60006001905090565b60606040518060400160405280600e81526020017f4d6f636b20446174612046656564000000000000000000000000000000000000815250905090565b6000806000806000600260009054906101000a900469ffffffffffffffffffff1669ffffffffffffffffffff168669ffffffffffffffffffff1611156102b6576040517f08c379a00000000000000000000000000000000000000000000000000000000081526004016102ad9061063a565b60405180910390fd5b85600054600154600154899450945094509450945091939590929450565b6000806000806000600260009054906101000a900469ffffffffffffffffffff16600054600154600154600260009054906101000a900469ffffffffffffffffffff16945094509450945094509091929394565b600080fd5b6000819050919050565b6103408161032d565b811461034b57600080fd5b50565b60008135905061035d81610337565b92915050565b60006020828403121561037957610378610328565b5b60006103878482850161034e565b91505092915050565b600060ff82169050919050565b6103a681610390565b82525050565b60006020820190506103c1600083018461039d565b92915050565b6000819050919050565b6103da816103c7565b82525050565b60006020820190506103f560008301846103d1565b92915050565b600081519050919050565b600082825260208201905092915050565b60005b8381101561043557808201518184015260208101905061041a565b60008484015250505050565b6000601f19601f8301169050919050565b600061045d826103fb565b6104678185610406565b9350610477818560208601610417565b61048081610441565b840191505092915050565b600060208201905081810360008301526104a58184610452565b905092915050565b600069ffffffffffffffffffff82169050919050565b6104cc816104ad565b81146104d757600080fd5b50565b6000813590506104e9816104c3565b92915050565b60006020828403121561050557610504610328565b5b6000610513848285016104da565b91505092915050565b610525816104ad565b82525050565b6105348161032d565b82525050565b600060a08201905061054f600083018861051c565b61055c602083018761052b565b61056960408301866103d1565b61057660608301856103d1565b610583608083018461051c565b9695505050505050565b7f4e487b7100000000000000000000000000000000000000000000000000000000600052601160045260246000fd5b60006105c7826104ad565b915069ffffffffffffffffffff82036105e3576105e261058d565b5b600182019050919050565b7f526f756e64206e6f7420636f6d706c6574650000000000000000000000000000600082015250565b6000610624601283610406565b915061062f826105ee565b602082019050919050565b6000602082019050818103600083015261065381610617565b905091905056fea26469706673582212204c2d7e5f3f6feb9f84d69fb96d75bfe5f97f8df659c60ba8b3c2d38e5781a3ee64736f6c63430008140033",
  "linkReferences": {},
  "deployedLinkReferences": {}
}