{
  "_format": "hh-sol-artifact-1",
  "contractName": "USDTContract",
  "sourceName": "contracts/usdtTTT.sol",
  "abi": [
    {
      "inputs": [],
      "stateMutability": "nonpayable",
      "type": "constructor"
    },
    {
      "inputs": [],
      "name": "InvalidShortString",
      "type": "error"
    },
    {
      "inputs": [
        {
          "internalType": "string",
          "name": "str",
          "type": "string"
        }
      ],
      "name": "StringTooLong",
      "type": "error"
    },
    {
      "anonymous": false,
      "inputs": [
        {
          "indexed": true,
          "internalType": "address",
          "name": "owner",
          "type": "address"
        },
        {
          "indexed": true,
          "internalType": "address",
          "name": "spender",
          "type": "address"
        },
        {
          "indexed": false,
          "internalType": "uint256",
          "name": "value",
          "type": "uint256"
        }
      ],
      "name": "Approval",
      "type": "event"
    },
    {
      "anonymous": false,
      "inputs": [],
      "name": "EIP712DomainChanged",
      "type": "event"
    },
    {
      "anonymous": false,
      "inputs": [
        {
          "indexed": true,
          "internalType": "address",
          "name": "from",
          "type": "address"
        },
        {
          "indexed": true,
          "internalType": "address",
          "name": "to",
          "type": "address"
        },
        {
          "indexed": false,
          "internalType": "uint256",
          "name": "value",
          "type": "uint256"
        }
      ],
      "name": "Transfer",
      "type": "event"
    },
    {
      "inputs": [],
      "name": "DOMAIN_SEPARATOR",
      "outputs": [
        {
          "internalType": "bytes32",
          "name": "",
          "type": "bytes32"
        }
      ],
      "stateMutability": "view",
      "type": "function"
    },
    {
      "inputs": [
        {
          "internalType": "address",
          "name": "owner",
          "type": "address"
        },
        {
          "internalType": "address",
          "name": "spender",
          "type": "address"
        }
      ],
      "name": "allowance",
      "outputs": [
        {
          "internalType": "uint256",
          "name": "",
          "type": "uint256"
        }
      ],
      "stateMutability": "view",
      "type": "function"
    },
    {
      "inputs": [
        {
          "internalType": "address",
          "name": "spender",
          "type": "address"
        },
        {
          "internalType": "uint256",
          "name": "amount",
          "type": "uint256"
        }
      ],
      "name": "approve",
      "outputs": [
        {
          "internalType": "bool",
          "name": "",
          "type": "bool"
        }
      ],
      "stateMutability": "nonpayable",
      "type": "function"
    },
    {
      "inputs": [
        {
          "internalType": "address",
          "name": "account",
          "type": "address"
        }
      ],
      "name": "balanceOf",
      "outputs": [
        {
          "internalType": "uint256",
          "name": "",
          "type": "uint256"
        }
      ],
      "stateMutability": "view",
      "type": "function"
    },
    {
      "inputs": [],
      "name": "decimals",
      "outputs": [
        {
          "internalType": "uint8",
          "name": "",
          "type": "uint8"
        }
      ],
      "stateMutability": "view",
      "type": "function"
    },
    {
      "inputs": [
        {
          "internalType": "address",
          "name": "spender",
          "type": "address"
        },
        {
          "internalType": "uint256",
          "name": "subtractedValue",
          "type": "uint256"
        }
      ],
      "name": "decreaseAllowance",
      "outputs": [
        {
          "internalType": "bool",
          "name": "",
          "type": "bool"
        }
      ],
      "stateMutability": "nonpayable",
      "type": "function"
    },
    {
      "inputs": [],
      "name": "eip712Domain",
      "outputs": [
        {
          "internalType": "bytes1",
          "name": "fields",
          "type": "bytes1"
        },
        {
          "internalType": "string",
          "name": "name",
          "type": "string"
        },
        {
          "internalType": "string",
          "name": "version",
          "type": "string"
        },
        {
          "internalType": "uint256",
          "name": "chainId",
          "type": "uint256"
        },
        {
          "internalType": "address",
          "name": "verifyingContract",
          "type": "address"
        },
        {
          "internalType": "bytes32",
          "name": "salt",
          "type": "bytes32"
        },
        {
          "internalType": "uint256[]",
          "name": "extensions",
          "type": "uint256[]"
        }
      ],
      "stateMutability": "view",
      "type": "function"
    },
    {
      "inputs": [
        {
          "internalType": "address",
          "name": "spender",
          "type": "address"
        },
        {
          "internalType": "uint256",
          "name": "addedValue",
          "type": "uint256"
        }
      ],
      "name": "increaseAllowance",
      "outputs": [
        {
          "internalType": "bool",
          "name": "",
          "type": "bool"
        }
      ],
      "stateMutability": "nonpayable",
      "type": "function"
    },
    {
      "inputs": [],
      "name": "name",
      "outputs": [
        {
          "internalType": "string",
          "name": "",
          "type": "string"
        }
      ],
      "stateMutability": "view",
      "type": "function"
    },
    {
      "inputs": [
        {
          "internalType": "address",
          "name": "owner",
          "type": "address"
        }
      ],
      "name": "nonces",
      "outputs": [
        {
          "internalType": "uint256",
          "name": "",
          "type": "uint256"
        }
      ],
      "stateMutability": "view",
      "type": "function"
    },
    {
      "inputs": [
        {
          "internalType": "address",
          "name": "owner",
          "type": "address"
        },
        {
          "internalType": "address",
          "name": "spender",
          "type": "address"
        },
        {
          "internalType": "uint256",
          "name": "value",
          "type": "uint256"
        },
        {
          "internalType": "uint256",
          "name": "deadline",
          "type": "uint256"
        },
        {
          "internalType": "uint8",
          "name": "v",
          "type": "uint8"
        },
        {
          "internalType": "bytes32",
          "name": "r",
          "type": "bytes32"
        },
        {
          "internalType": "bytes32",
          "name": "s",
          "type": "bytes32"
        }
      ],
      "name": "permit",
      "outputs": [],
      "stateMutability": "nonpayable",
      "type": "function"
    },
    {
      "inputs": [],
      "name": "symbol",
      "outputs": [
        {
          "internalType": "string",
          "name": "",
          "type": "string"
        }
      ],
      "stateMutability": "view",
      "type": "function"
    },
    {
      "inputs": [],
      "name": "totalSupply",
      "outputs": [
        {
          "internalType": "uint256",
          "name": "",
          "type": "uint256"
        }
      ],
      "stateMutability": "view",
      "type": "function"
    },
    {
      "inputs": [
        {
          "internalType": "address",
          "name": "to",
          "type": "address"
        },
        {
          "internalType": "uint256",
          "name": "amount",
          "type": "uint256"
        }
      ],
      "name": "transfer",
      "outputs": [
        {
          "internalType": "bool",
          "name": "",
          "type": "bool"
        }
      ],
      "stateMutability": "nonpayable",
      "type": "function"
    },
    {
      "inputs": [
        {
          "internalType": "address",
          "name": "from",
          "type": "address"
        },
        {
          "internalType": "address",
          "name": "to",
          "type": "address"
        },
        {
          "internalType": "uint256",
          "name": "amount",
          "type": "uint256"
        }
      ],
      "name": "transferFrom",
      "outputs": [
        {
          "internalType": "bool",
          "name": "",
          "type": "bool"
        }
      ],
      "stateMutability": "nonpayable",
      "type": "function"
    }
  ],
  "bytecode": "0x6101606040523480156200001257600080fd5b506040518060400160405280600c81526020017f55534454436f6e74726163740000000000000000000000000000000000000000815250806040518060400160405280600181526020017f31000000000000000000000000000000000000000000000000000000000000008152506040518060400160405280600d81526020017f5348494241436f6e7472616374000000000000000000000000000000000000008152506040518060400160405280600c81526020017f534849424120494e44494e5500000000000000000000000000000000000000008152508160039081620000fd919062000730565b5080600490816200010f919062000730565b505050620001286005836200020a60201b90919060201c565b6101208181525050620001466006826200020a60201b90919060201c565b6101408181525050818051906020012060e08181525050808051906020012061010081815250504660a08181525050620001856200026260201b60201c565b608081815250503073ffffffffffffffffffffffffffffffffffffffff1660c08173ffffffffffffffffffffffffffffffffffffffff16815250505050506200020433620001d8620002bf60201b60201c565b600a620001e69190620009a7565b6402540be400620001f89190620009f8565b620002c860201b60201c565b62000d30565b6000602083511015620002305762000228836200043560201b60201c565b90506200025c565b826200024283620004a260201b60201c565b600001908162000253919062000730565b5060ff60001b90505b92915050565b60007f8b73c3c69bb8fe3d512ecc4cf759cc79239f7b179b0ffacaa9a75d522b39400f60e051610100514630604051602001620002a495949392919062000ab4565b60405160208183030381529060405280519060200120905090565b60006012905090565b600073ffffffffffffffffffffffffffffffffffffffff168273ffffffffffffffffffffffffffffffffffffffff16036200033a576040517f08c379a0000000000000000000000000000000000000000000000000000000008152600401620003319062000b72565b60405180910390fd5b6200034e60008383620004ac60201b60201c565b806002600082825462000362919062000b94565b92505081905550806000808473ffffffffffffffffffffffffffffffffffffffff1673ffffffffffffffffffffffffffffffffffffffff168152602001908152602001600020600082825401925050819055508173ffffffffffffffffffffffffffffffffffffffff16600073ffffffffffffffffffffffffffffffffffffffff167fddf252ad1be2c89b69c2b068fc378daa952ba7f163c4a11628f55a4df523b3ef8360405162000415919062000bcf565b60405180910390a36200043160008383620004b160201b60201c565b5050565b600080829050601f815111156200048557826040517f305a27a90000000000000000000000000000000000000000000000000000000081526004016200047c919062000c6a565b60405180910390fd5b805181620004939062000cc0565b60001c1760001b915050919050565b6000819050919050565b505050565b505050565b600081519050919050565b7f4e487b7100000000000000000000000000000000000000000000000000000000600052604160045260246000fd5b7f4e487b7100000000000000000000000000000000000000000000000000000000600052602260045260246000fd5b600060028204905060018216806200053857607f821691505b6020821081036200054e576200054d620004f0565b5b50919050565b60008190508160005260206000209050919050565b60006020601f8301049050919050565b600082821b905092915050565b600060088302620005b87fffffffffffffffffffffffffffffffffffffffffffffffffffffffffffffffff8262000579565b620005c4868362000579565b95508019841693508086168417925050509392505050565b6000819050919050565b6000819050919050565b6000620006116200060b6200060584620005dc565b620005e6565b620005dc565b9050919050565b6000819050919050565b6200062d83620005f0565b620006456200063c8262000618565b84845462000586565b825550505050565b600090565b6200065c6200064d565b6200066981848462000622565b505050565b5b8181101562000691576200068560008262000652565b6001810190506200066f565b5050565b601f821115620006e057620006aa8162000554565b620006b58462000569565b81016020851015620006c5578190505b620006dd620006d48562000569565b8301826200066e565b50505b505050565b600082821c905092915050565b60006200070560001984600802620006e5565b1980831691505092915050565b6000620007208383620006f2565b9150826002028217905092915050565b6200073b82620004b6565b67ffffffffffffffff811115620007575762000756620004c1565b5b6200076382546200051f565b6200077082828562000695565b600060209050601f831160018114620007a8576000841562000793578287015190505b6200079f858262000712565b8655506200080f565b601f198416620007b88662000554565b60005b82811015620007e257848901518255600182019150602085019450602081019050620007bb565b86831015620008025784890151620007fe601f891682620006f2565b8355505b6001600288020188555050505b505050505050565b7f4e487b7100000000000000000000000000000000000000000000000000000000600052601160045260246000fd5b60008160011c9050919050565b6000808291508390505b6001851115620008a5578086048111156200087d576200087c62000817565b5b60018516156200088d5780820291505b80810290506200089d8562000846565b94506200085d565b94509492505050565b600082620008c0576001905062000993565b81620008d0576000905062000993565b8160018114620008e95760028114620008f4576200092a565b600191505062000993565b60ff84111562000909576200090862000817565b5b8360020a91508482111562000923576200092262000817565b5b5062000993565b5060208310610133831016604e8410600b8410161715620009645782820a9050838111156200095e576200095d62000817565b5b62000993565b62000973848484600162000853565b925090508184048111156200098d576200098c62000817565b5b81810290505b9392505050565b600060ff82169050919050565b6000620009b482620005dc565b9150620009c1836200099a565b9250620009f07fffffffffffffffffffffffffffffffffffffffffffffffffffffffffffffffff8484620008ae565b905092915050565b600062000a0582620005dc565b915062000a1283620005dc565b925082820262000a2281620005dc565b9150828204841483151762000a3c5762000a3b62000817565b5b5092915050565b6000819050919050565b62000a588162000a43565b82525050565b62000a6981620005dc565b82525050565b600073ffffffffffffffffffffffffffffffffffffffff82169050919050565b600062000a9c8262000a6f565b9050919050565b62000aae8162000a8f565b82525050565b600060a08201905062000acb600083018862000a4d565b62000ada602083018762000a4d565b62000ae9604083018662000a4d565b62000af8606083018562000a5e565b62000b07608083018462000aa3565b9695505050505050565b600082825260208201905092915050565b7f45524332303a206d696e7420746f20746865207a65726f206164647265737300600082015250565b600062000b5a601f8362000b11565b915062000b678262000b22565b602082019050919050565b6000602082019050818103600083015262000b8d8162000b4b565b9050919050565b600062000ba182620005dc565b915062000bae83620005dc565b925082820190508082111562000bc95762000bc862000817565b5b92915050565b600060208201905062000be6600083018462000a5e565b92915050565b60005b8381101562000c0c57808201518184015260208101905062000bef565b60008484015250505050565b6000601f19601f8301169050919050565b600062000c3682620004b6565b62000c42818562000b11565b935062000c5481856020860162000bec565b62000c5f8162000c18565b840191505092915050565b6000602082019050818103600083015262000c86818462000c29565b905092915050565b600081519050919050565b6000819050602082019050919050565b600062000cb7825162000a43565b80915050919050565b600062000ccd8262000c8e565b8262000cd98462000c99565b905062000ce68162000ca9565b9250602082101562000d295762000d247fffffffffffffffffffffffffffffffffffffffffffffffffffffffffffffffff8360200360080262000579565b831692505b5050919050565b60805160a05160c05160e05161010051610120516101405161221062000d8b600039600061056c01526000610538015260006110570152600061103601526000610df301526000610e4901526000610e7201526122106000f3fe608060405234801561001057600080fd5b50600436106100f55760003560e01c806370a0823111610097578063a457c2d711610066578063a457c2d7146102a4578063a9059cbb146102d4578063d505accf14610304578063dd62ed3e14610320576100f5565b806370a08231146102025780637ecebe001461023257806384b0196e1461026257806395d89b4114610286576100f5565b806323b872dd116100d357806323b872dd14610166578063313ce567146101965780633644e515146101b457806339509351146101d2576100f5565b806306fdde03146100fa578063095ea7b31461011857806318160ddd14610148575b600080fd5b610102610350565b60405161010f919061149a565b60405180910390f35b610132600480360381019061012d9190611555565b6103e2565b60405161013f91906115b0565b60405180910390f35b610150610405565b60405161015d91906115da565b60405180910390f35b610180600480360381019061017b91906115f5565b61040f565b60405161018d91906115b0565b60405180910390f35b61019e61043e565b6040516101ab9190611664565b60405180910390f35b6101bc610447565b6040516101c99190611698565b60405180910390f35b6101ec60048036038101906101e79190611555565b610456565b6040516101f991906115b0565b60405180910390f35b61021c600480360381019061021791906116b3565b61048d565b60405161022991906115da565b60405180910390f35b61024c600480360381019061024791906116b3565b6104d5565b60405161025991906115da565b60405180910390f35b61026a610525565b60405161027d97969594939291906117e8565b60405180910390f35b61028e610627565b60405161029b919061149a565b60405180910390f35b6102be60048036038101906102b99190611555565b6106b9565b6040516102cb91906115b0565b60405180910390f35b6102ee60048036038101906102e99190611555565b610730565b6040516102fb91906115b0565b60405180910390f35b61031e600480360381019061031991906118c4565b610753565b005b61033a60048036038101906103359190611966565b610895565b60405161034791906115da565b60405180910390f35b60606003805461035f906119d5565b80601f016020809104026020016040519081016040528092919081815260200182805461038b906119d5565b80156103d85780601f106103ad576101008083540402835291602001916103d8565b820191906000526020600020905b8154815290600101906020018083116103bb57829003601f168201915b5050505050905090565b6000806103ed61091c565b90506103fa818585610924565b600191505092915050565b6000600254905090565b60008061041a61091c565b9050610427858285610aed565b610432858585610b79565b60019150509392505050565b60006012905090565b6000610451610def565b905090565b60008061046161091c565b90506104828185856104738589610895565b61047d9190611a35565b610924565b600191505092915050565b60008060008373ffffffffffffffffffffffffffffffffffffffff1673ffffffffffffffffffffffffffffffffffffffff168152602001908152602001600020549050919050565b600061051e600760008473ffffffffffffffffffffffffffffffffffffffff1673ffffffffffffffffffffffffffffffffffffffff168152602001908152602001600020610ea6565b9050919050565b60006060806000806000606061056560057f0000000000000000000000000000000000000000000000000000000000000000610eb490919063ffffffff16565b61059960067f0000000000000000000000000000000000000000000000000000000000000000610eb490919063ffffffff16565b46306000801b600067ffffffffffffffff8111156105ba576105b9611a69565b5b6040519080825280602002602001820160405280156105e85781602001602082028036833780820191505090505b507f0f00000000000000000000000000000000000000000000000000000000000000959493929190965096509650965096509650965090919293949596565b606060048054610636906119d5565b80601f0160208091040260200160405190810160405280929190818152602001828054610662906119d5565b80156106af5780601f10610684576101008083540402835291602001916106af565b820191906000526020600020905b81548152906001019060200180831161069257829003601f168201915b5050505050905090565b6000806106c461091c565b905060006106d28286610895565b905083811015610717576040517f08c379a000000000000000000000000000000000000000000000000000000000815260040161070e90611b0a565b60405180910390fd5b6107248286868403610924565b60019250505092915050565b60008061073b61091c565b9050610748818585610b79565b600191505092915050565b83421115610796576040517f08c379a000000000000000000000000000000000000000000000000000000000815260040161078d90611b76565b60405180910390fd5b60007f6e71edae12b1b97f4d1f60370fef10105fa2faae0126114a169c64845d6126c98888886107c58c610f64565b896040516020016107db96959493929190611b96565b60405160208183030381529060405280519060200120905060006107fe82610fc2565b9050600061080e82878787610fdc565b90508973ffffffffffffffffffffffffffffffffffffffff168173ffffffffffffffffffffffffffffffffffffffff161461087e576040517f08c379a000000000000000000000000000000000000000000000000000000000815260040161087590611c43565b60405180910390fd5b6108898a8a8a610924565b50505050505050505050565b6000600160008473ffffffffffffffffffffffffffffffffffffffff1673ffffffffffffffffffffffffffffffffffffffff16815260200190815260200160002060008373ffffffffffffffffffffffffffffffffffffffff1673ffffffffffffffffffffffffffffffffffffffff16815260200190815260200160002054905092915050565b600033905090565b600073ffffffffffffffffffffffffffffffffffffffff168373ffffffffffffffffffffffffffffffffffffffff1603610993576040517f08c379a000000000000000000000000000000000000000000000000000000000815260040161098a90611cd5565b60405180910390fd5b600073ffffffffffffffffffffffffffffffffffffffff168273ffffffffffffffffffffffffffffffffffffffff1603610a02576040517f08c379a00000000000000000000000000000000000000000000000000000000081526004016109f990611d67565b60405180910390fd5b80600160008573ffffffffffffffffffffffffffffffffffffffff1673ffffffffffffffffffffffffffffffffffffffff16815260200190815260200160002060008473ffffffffffffffffffffffffffffffffffffffff1673ffffffffffffffffffffffffffffffffffffffff168152602001908152602001600020819055508173ffffffffffffffffffffffffffffffffffffffff168373ffffffffffffffffffffffffffffffffffffffff167f8c5be1e5ebec7d5bd14f71427d1e84f3dd0314c0f7b2291e5b200ac8c7c3b92583604051610ae091906115da565b60405180910390a3505050565b6000610af98484610895565b90507fffffffffffffffffffffffffffffffffffffffffffffffffffffffffffffffff8114610b735781811015610b65576040517f08c379a0000000000000000000000000000000000000000000000000000000008152600401610b5c90611dd3565b60405180910390fd5b610b728484848403610924565b5b50505050565b600073ffffffffffffffffffffffffffffffffffffffff168373ffffffffffffffffffffffffffffffffffffffff1603610be8576040517f08c379a0000000000000000000000000000000000000000000000000000000008152600401610bdf90611e65565b60405180910390fd5b600073ffffffffffffffffffffffffffffffffffffffff168273ffffffffffffffffffffffffffffffffffffffff1603610c57576040517f08c379a0000000000000000000000000000000000000000000000000000000008152600401610c4e90611ef7565b60405180910390fd5b610c62838383611007565b60008060008573ffffffffffffffffffffffffffffffffffffffff1673ffffffffffffffffffffffffffffffffffffffff16815260200190815260200160002054905081811015610ce8576040517f08c379a0000000000000000000000000000000000000000000000000000000008152600401610cdf90611f89565b60405180910390fd5b8181036000808673ffffffffffffffffffffffffffffffffffffffff1673ffffffffffffffffffffffffffffffffffffffff16815260200190815260200160002081905550816000808573ffffffffffffffffffffffffffffffffffffffff1673ffffffffffffffffffffffffffffffffffffffff168152602001908152602001600020600082825401925050819055508273ffffffffffffffffffffffffffffffffffffffff168473ffffffffffffffffffffffffffffffffffffffff167fddf252ad1be2c89b69c2b068fc378daa952ba7f163c4a11628f55a4df523b3ef84604051610dd691906115da565b60405180910390a3610de984848461100c565b50505050565b60007f000000000000000000000000000000000000000000000000000000000000000073ffffffffffffffffffffffffffffffffffffffff163073ffffffffffffffffffffffffffffffffffffffff16148015610e6b57507f000000000000000000000000000000000000000000000000000000000000000046145b15610e98577f00000000000000000000000000000000000000000000000000000000000000009050610ea3565b610ea0611011565b90505b90565b600081600001549050919050565b606060ff60001b8314610ed157610eca836110a7565b9050610f5e565b818054610edd906119d5565b80601f0160208091040260200160405190810160405280929190818152602001828054610f09906119d5565b8015610f565780601f10610f2b57610100808354040283529160200191610f56565b820191906000526020600020905b815481529060010190602001808311610f3957829003601f168201915b505050505090505b92915050565b600080600760008473ffffffffffffffffffffffffffffffffffffffff1673ffffffffffffffffffffffffffffffffffffffff1681526020019081526020016000209050610fb181610ea6565b9150610fbc8161111b565b50919050565b6000610fd5610fcf610def565b83611131565b9050919050565b6000806000610fed87878787611172565b91509150610ffa81611254565b8192505050949350505050565b505050565b505050565b60007f8b73c3c69bb8fe3d512ecc4cf759cc79239f7b179b0ffacaa9a75d522b39400f7f00000000000000000000000000000000000000000000000000000000000000007f0000000000000000000000000000000000000000000000000000000000000000463060405160200161108c959493929190611fa9565b60405160208183030381529060405280519060200120905090565b606060006110b4836113ba565b90506000602067ffffffffffffffff8111156110d3576110d2611a69565b5b6040519080825280601f01601f1916602001820160405280156111055781602001600182028036833780820191505090505b5090508181528360208201528092505050919050565b6001816000016000828254019250508190555050565b60006040517f190100000000000000000000000000000000000000000000000000000000000081528360028201528260228201526042812091505092915050565b6000807f7fffffffffffffffffffffffffffffff5d576e7357a4501ddfe92f46681b20a08360001c11156111ad57600060039150915061124b565b6000600187878787604051600081526020016040526040516111d29493929190611ffc565b6020604051602081039080840390855afa1580156111f4573d6000803e3d6000fd5b505050602060405103519050600073ffffffffffffffffffffffffffffffffffffffff168173ffffffffffffffffffffffffffffffffffffffff16036112425760006001925092505061124b565b80600092509250505b94509492505050565b6000600481111561126857611267612041565b5b81600481111561127b5761127a612041565b5b03156113b7576001600481111561129557611294612041565b5b8160048111156112a8576112a7612041565b5b036112e8576040517f08c379a00000000000000000000000000000000000000000000000000000000081526004016112df906120bc565b60405180910390fd5b600260048111156112fc576112fb612041565b5b81600481111561130f5761130e612041565b5b0361134f576040517f08c379a000000000000000000000000000000000000000000000000000000000815260040161134690612128565b60405180910390fd5b6003600481111561136357611362612041565b5b81600481111561137657611375612041565b5b036113b6576040517f08c379a00000000000000000000000000000000000000000000000000000000081526004016113ad906121ba565b60405180910390fd5b5b50565b60008060ff8360001c169050601f811115611401576040517fb3512b0c00000000000000000000000000000000000000000000000000000000815260040160405180910390fd5b80915050919050565b600081519050919050565b600082825260208201905092915050565b60005b83811015611444578082015181840152602081019050611429565b60008484015250505050565b6000601f19601f8301169050919050565b600061146c8261140a565b6114768185611415565b9350611486818560208601611426565b61148f81611450565b840191505092915050565b600060208201905081810360008301526114b48184611461565b905092915050565b600080fd5b600073ffffffffffffffffffffffffffffffffffffffff82169050919050565b60006114ec826114c1565b9050919050565b6114fc816114e1565b811461150757600080fd5b50565b600081359050611519816114f3565b92915050565b6000819050919050565b6115328161151f565b811461153d57600080fd5b50565b60008135905061154f81611529565b92915050565b6000806040838503121561156c5761156b6114bc565b5b600061157a8582860161150a565b925050602061158b85828601611540565b9150509250929050565b60008115159050919050565b6115aa81611595565b82525050565b60006020820190506115c560008301846115a1565b92915050565b6115d48161151f565b82525050565b60006020820190506115ef60008301846115cb565b92915050565b60008060006060848603121561160e5761160d6114bc565b5b600061161c8682870161150a565b935050602061162d8682870161150a565b925050604061163e86828701611540565b9150509250925092565b600060ff82169050919050565b61165e81611648565b82525050565b60006020820190506116796000830184611655565b92915050565b6000819050919050565b6116928161167f565b82525050565b60006020820190506116ad6000830184611689565b92915050565b6000602082840312156116c9576116c86114bc565b5b60006116d78482850161150a565b91505092915050565b60007fff0000000000000000000000000000000000000000000000000000000000000082169050919050565b611715816116e0565b82525050565b611724816114e1565b82525050565b600081519050919050565b600082825260208201905092915050565b6000819050602082019050919050565b61175f8161151f565b82525050565b60006117718383611756565b60208301905092915050565b6000602082019050919050565b60006117958261172a565b61179f8185611735565b93506117aa83611746565b8060005b838110156117db5781516117c28882611765565b97506117cd8361177d565b9250506001810190506117ae565b5085935050505092915050565b600060e0820190506117fd600083018a61170c565b818103602083015261180f8189611461565b905081810360408301526118238188611461565b905061183260608301876115cb565b61183f608083018661171b565b61184c60a0830185611689565b81810360c083015261185e818461178a565b905098975050505050505050565b61187581611648565b811461188057600080fd5b50565b6000813590506118928161186c565b92915050565b6118a18161167f565b81146118ac57600080fd5b50565b6000813590506118be81611898565b92915050565b600080600080600080600060e0888a0312156118e3576118e26114bc565b5b60006118f18a828b0161150a565b97505060206119028a828b0161150a565b96505060406119138a828b01611540565b95505060606119248a828b01611540565b94505060806119358a828b01611883565b93505060a06119468a828b016118af565b92505060c06119578a828b016118af565b91505092959891949750929550565b6000806040838503121561197d5761197c6114bc565b5b600061198b8582860161150a565b925050602061199c8582860161150a565b9150509250929050565b7f4e487b7100000000000000000000000000000000000000000000000000000000600052602260045260246000fd5b600060028204905060018216806119ed57607f821691505b602082108103611a00576119ff6119a6565b5b50919050565b7f4e487b7100000000000000000000000000000000000000000000000000000000600052601160045260246000fd5b6000611a408261151f565b9150611a4b8361151f565b9250828201905080821115611a6357611a62611a06565b5b92915050565b7f4e487b7100000000000000000000000000000000000000000000000000000000600052604160045260246000fd5b7f45524332303a2064656372656173656420616c6c6f77616e63652062656c6f7760008201527f207a65726f000000000000000000000000000000000000000000000000000000602082015250565b6000611af4602583611415565b9150611aff82611a98565b604082019050919050565b60006020820190508181036000830152611b2381611ae7565b9050919050565b7f45524332305065726d69743a206578706972656420646561646c696e65000000600082015250565b6000611b60601d83611415565b9150611b6b82611b2a565b602082019050919050565b60006020820190508181036000830152611b8f81611b53565b9050919050565b600060c082019050611bab6000830189611689565b611bb8602083018861171b565b611bc5604083018761171b565b611bd260608301866115cb565b611bdf60808301856115cb565b611bec60a08301846115cb565b979650505050505050565b7f45524332305065726d69743a20696e76616c6964207369676e61747572650000600082015250565b6000611c2d601e83611415565b9150611c3882611bf7565b602082019050919050565b60006020820190508181036000830152611c5c81611c20565b9050919050565b7f45524332303a20617070726f76652066726f6d20746865207a65726f2061646460008201527f7265737300000000000000000000000000000000000000000000000000000000602082015250565b6000611cbf602483611415565b9150611cca82611c63565b604082019050919050565b60006020820190508181036000830152611cee81611cb2565b9050919050565b7f45524332303a20617070726f766520746f20746865207a65726f20616464726560008201527f7373000000000000000000000000000000000000000000000000000000000000602082015250565b6000611d51602283611415565b9150611d5c82611cf5565b604082019050919050565b60006020820190508181036000830152611d8081611d44565b9050919050565b7f45524332303a20696e73756666696369656e7420616c6c6f77616e6365000000600082015250565b6000611dbd601d83611415565b9150611dc882611d87565b602082019050919050565b60006020820190508181036000830152611dec81611db0565b9050919050565b7f45524332303a207472616e736665722066726f6d20746865207a65726f20616460008201527f6472657373000000000000000000000000000000000000000000000000000000602082015250565b6000611e4f602583611415565b9150611e5a82611df3565b604082019050919050565b60006020820190508181036000830152611e7e81611e42565b9050919050565b7f45524332303a207472616e7366657220746f20746865207a65726f206164647260008201527f6573730000000000000000000000000000000000000000000000000000000000602082015250565b6000611ee1602383611415565b9150611eec82611e85565b604082019050919050565b60006020820190508181036000830152611f1081611ed4565b9050919050565b7f45524332303a207472616e7366657220616d6f756e742065786365656473206260008201527f616c616e63650000000000000000000000000000000000000000000000000000602082015250565b6000611f73602683611415565b9150611f7e82611f17565b604082019050919050565b60006020820190508181036000830152611fa281611f66565b9050919050565b600060a082019050611fbe6000830188611689565b611fcb6020830187611689565b611fd86040830186611689565b611fe560608301856115cb565b611ff2608083018461171b565b9695505050505050565b60006080820190506120116000830187611689565b61201e6020830186611655565b61202b6040830185611689565b6120386060830184611689565b95945050505050565b7f4e487b7100000000000000000000000000000000000000000000000000000000600052602160045260246000fd5b7f45434453413a20696e76616c6964207369676e61747572650000000000000000600082015250565b60006120a6601883611415565b91506120b182612070565b602082019050919050565b600060208201905081810360008301526120d581612099565b9050919050565b7f45434453413a20696e76616c6964207369676e6174757265206c656e67746800600082015250565b6000612112601f83611415565b915061211d826120dc565b602082019050919050565b6000602082019050818103600083015261214181612105565b9050919050565b7f45434453413a20696e76616c6964207369676e6174757265202773272076616c60008201527f7565000000000000000000000000000000000000000000000000000000000000602082015250565b60006121a4602283611415565b91506121af82612148565b604082019050919050565b600060208201905081810360008301526121d381612197565b905091905056fea2646970667358221220c5bce32deb336cedf7c5c2ee355b9280ffb9f8f5f1ae79dd62b7953c49df69da64736f6c63430008140033",
  "linkReferences": {},
  "deployedLinkReferences": {}
}